:03000000020F39B3
:0C0F3900787FE4F6D8FD7581B5020F80CA
:10112B000401030202010000020202030401020196
:10113B00040303040200020203010203020202047D
:10114B000204000304020301000301030300020075
:10115B00040303030303040101040300010003025E
:10116B000302030304040103000003010303030050
:10117B00030304010204010300010304040302033B
:09118B00010203034C4F564521FB
:100D6B0060280019000A233C556E4C4F5645210054
:100D7B0001FF01FF005001FF01FF01FF01FF01FF18
:100D8B0000000000000000000000000020332100E4
:100D9B000003FF000003FF000003FF000000000042
:100DAB000000000000000000000000000000000038
:100DBB000000000000000000000000000000000028
:100DCB0000005900000000000000000000000000BF
:100DDB0000000000000000000000000000000110F7
:100DEB0000011100011200021300000215000002A5
:0C0DFB00170000011900011A00011B0084
:1014F6007598D0438E01438E04EFFD7C0064017025
:101506000875D7C775D6FE8011ED64024C70057557
:10151600D7E6800375D7E275D6FFD2B1438E102287
:0D162700309902C299EFA2D0929BF5992252
:1013EE008B748A758976AB74AA75A9761208E96032
:1013FE00160576E5767002057514F91208E9FF12E6
:10140E0016272099E180FB7F0D1216273099FD7F5C
:08141E000A1216273099FD2285
:0B1670007B017A0079007D0B0215263B
:0B167B007B017A00790B7D0B02000E52
:1015D800EF75F009A4247DF8A60308A60208A60161
:0115E80022E0
:10142600EF75F009A42477F8E4F6EF75F009A42423
:1014360078F8E4F6EF75F009A42479F8A60408A66E
:1014460005EF75F009A4247BF8E4F608F6EF75F0CD
:0814560009A42477F8760122B5
:1013B500EF75F009A42477F8E4F6EF75F009A42495
:1013C50078F8E4F6EF75F009A4247BF8ECF608ED5F
:1013D500F6EF75F009A42479F8A60408A605EF75BB
:0913E500F009A42477F8A6032204
:050036007BFF0213B581
:100EA500E4FFEFC39407748094804003020F38EF8A
:100EB50075F009A42477F8E66075EF75F009A424A8
:100EC5007AF9D3E7940319E794004013EF75F00915
:100ED500A4247AF874FD26F61874FF36F68050EFD0
:100EE50075F009A4247BF8E6FC08E6FDEF75F0092A
:100EF500A42479F8A60408A605EF75F009A42477BB
:100F0500F8E6F46009EF75F009A42477F816EF7593
:100F1500F009A4247CF9E71947700AEF75F009A4D4
:100F25002477F8E4F6EF75F009A42478F876010F34
:030F3500020EA702
:010F38002296
:1012ED00E4F568C3E5689407748094805038E56828
:1012FD0075F009A42478F8E66028E4F6E56875F041
:10130D0009A4247DF8860308E6FA08E64A4B601224
:10131D00E56875F009A4247DF808E6FA08E6F912E7
:06132D000AFB056880BD0B
:011333002297
:100CC900E4900019F075C783FDFCFF121554EF6419
:100CD900AB6004E4F5C722756A00756BAB756901F1
:100CE900756E01756F0075701AC3E5699428748073
:100CF90094805032E569FD7C00E4FF121554AB6E17
:100D0900AA6FA970EF12092FAB6E0570E570AA6F73
:100D19007002056F14F91208E9256BF56BE4356A61
:100D2900F56A056980C37D287C00E4FF12155475B6
:100D39006C008F6DE56D756D00F56C7D297C00E4A7
:100D4900FF121554EF256DF56DE4356CF56CE4F57E
:100D5900C7E56BB56D0BE56AB56C0690001974AB08
:010D6900F099
:010D6A002266
:10104B0075C783E4FF1215FA90001974ABF0E4F541
:10105B006AF56BF56C756D01756E00756F19C3E5EF
:10106B006A9428748094805032E56AFD7C00AB6DE5
:10107B00AA6EA96F1208E9FBE4FF121572AB6D059E
:10108B006FE56FAA6E7002056E14F91208E9256CF4
:10109B00F56CE4356BF56B056A80C3E56BFB7D285E
:1010AB007C00E4FF121572AB6C7D297C00E4FF120F
:0510BB001572E4F5C709
:0110C000220D
:100BEA00AF22EF25E0F569AE21E5227807CEC313DF
:100BFA00CE13D8F92524C454F0F56AE523C4F85471
:100C0A00F0C8E524C4540F482526C433333354802E
:100C1A00F56BE525C313E52613F56CE525C3132506
:100C2A0028FF25E025E0F56DAE27E5287806CEC336
:100C3A0013CE13D8F9252AFFC43354E0F56EAE2932
:100C4A00E52A7803CEC313CE13D8F9AE2C756F00FC
:100C5A008E70E52B252EFF33333354F8F571AE2D04
:100C6A00E52E7805CEC313CE13D8F92530FFC43349
:100C7A003354C0F572AE2FE5307802CEC313CE13CB
:100C8A00D8F9F573753A0F7F01EFD3940B748094FA
:100C9A00805013C2AF74682FF8E6FE743A2FF8A694
:100CAA0006D2AF0F80E3EFD3941674809480500974
:0E0CBA00743A2FF8E4F60F80EDE4F551F55290
:010CC8002209
:0E160A000510E51030E00475530222E4F5539C
:0116180022AF
:09169A00900016E0F539E4F0229D
:10145E00755302C2AFE4FFEFC394087480948050BA
:10146E001FEF25E02425F582E43400F583E0FCA38C
:10147E00E0FDEF25E02421F8A60408A6050F80D78D
:05148E00D2AF020BEAE1
:0700030012104B755301229E
:0416AC00E4F55322EC
:1011FC00309650900017E004F0E0D394057480947E
:10120C0080401CD3E5119463748094804003E4F512
:10121C0011E51190112B93900018F005118012908C
:10122C000018E004F0E0D39404748094804002E44D
:10123C00F0900018E0241AF582E43400F583E0FF06
:03124C001216581F
:01124F00227C
:10119400AFBDAB077A007E00EB7802C333CE33CE0B
:1011A400D8F9AA06AFBE2FFBE43AFA0512E51230CD
:1011B400E023AE54AF557C007D07120963EF78033A
:1011C400CEC313CE13D8F92BF555EE3AF554759DCD
:1011D4000875BC8B22AE1EAF1F7C007D071209630D
:1011E400EF7803CEC313CE13D8F92BF51FEE3AF5DF
:0711F4001EE4F59D75BC88A7
:0111FB0022D1
:100FC500E4FFEFC3940774809480503FEF75F009F8
:100FD500A42477F8E4F6EF75F009A42478F8E4F68C
:100FE500EF75F009A42479F8E4F608F6EF75F00931
:100FF500A4247BF8E4F608F6EF75F009A4247DF83F
:1010050076000876000876000F80B77BFF7A1679A0
:101015000AE4FF1215D87A16799A0F1215D87A14A0
:10102500795E0F1215D87A0079030F1215D87A1642
:1010350079AC0F1215D87A1179FC0F1215D87A11DF
:0610450079940F0215D89A
:100B0100E4FF1214937F211216587BFF7A11798F1B
:100B11001216867BFF7A11798F1216902096FD129C
:100B21001670121664900000E064A07056FF75699B
:100B310001EFC3940574809480501E74002569F5FB
:100B410082E43400F583E0FE741A2FF582E4340068
:100B5100F583EEF00F056980D8E4FFEFC3940574C7
:100B6100809480501E74002569F582E43400F58379
:100B7100E0FE741F2FF582E43400F583EEF00F05DB
:100B81006980D890000B744FF0A3744BF01216409B
:100B91007F211216587BFF7A11798F1216867BFFFF
:100BA1007A11798F12169012167B1216A31216342F
:100BB10090001AE0FF1216587B017A00791F121675
:100BC100867B017A00791F121690756964AF6915E9
:100BD10069EF60B91216A32096F31216701216640B
:080BE10012104B7F0312149364
:010BE90022E9
:1010C100E4F568C2B3D2B21216A320B21375B20806
:1010D100D2B31216A330B2087F141215C17568017C
:1010E100C2B3C2B275B2FF1214C5EF600C7F031216
:1010F10015C17FF412161980EE120CC9120E08EFF9
:10110100600C7F0A1215C17FF412161980EE7B0163
:101111007A00791F7F42121334E568700690001936
:09112100E07003120B01E4F55328
:01112A0022A2
:1015AA00C2B7C2B6C2B5C2B4C2B3C2B2C2B1C2B085
:0715BA004391085392F72250
:0416B00075DC422281
:0416B400E4F5DC225B
:0416B80075DB42227A
:0416BC00E4F5DB2254
:1012A100E4F5A8F5AF75BC807F02121619E4F59D2F
:1012B10075BC8875B80253890F75A80253A2CF4334
:1012C100A21075F40375F3031216B41216BCE4F5FB
:1012D100D8F5E9F5F9F5D9751C0B751DB8851DEA29
:0C12E100E51CF5FA75DA49E4FF0214F68A
:10159000900035E060031216B0900036E060031250
:0A15A00016B8D28C75D840D2AF22E5
:03000B0002003EB2
:0D003E00C0E0C0F0C083C082C0D075D00803
:10004B00900024E0700302017C0519E51914B41229
:10005B0000400302017990006F75F003A4C583255E
:10006B00F0C583730200A50201390200BB020139FE
:10007B000200D00201390200E50201390200FA0246
:10008B00013902010F020139020124020139020177
:10009B003B02013902016302016ED2B7758A70759A
:1000AB008CFEC374A79522F51474FD952102014EA5
:1000BB00D2B7758A70758CFEC374A79524F514742A
:1000CB00FD9523807ED2B7758A70758CFEC374A79D
:1000DB009526F51474FD95258069D2B7758A7075D0
:1000EB008CFEC374A79528F51474FD95278054D204
:1000FB00B7758A70758CFEC374A7952AF51474FDB9
:10010B009529803FD2B7758A70758CFEC374A795FD
:10011B002CF51474FD952B802AD2B7758A70758CCB
:10012B00FEC374A7952EF51474FD952D8015801DB7
:10013B00D2B7758A70758CFEC374A79530F514749D
:10014B00FD952FF51385141BF51A020424C2B785F0
:10015B001B8A851A8C020424D2B7758A70758CFEA3
:10016B00020424C2B7758AF0758CD80204210204EC
:10017B0021900040E06036D2B1D3E5199418748019
:10018B0094804005751900800C743A2519F8E6FF28
:10019B001216270519E51964197009758AF0758C03
:1001AB00D8020424758A88758CFF0204240519E58E
:1001BB001914B4100040030204219001D375F0030D
:1001CB00A4C58325F0C58373020203020253020206
:1001DB00680202B50202CA0202E80202F702031524
:1001EB0002032402034202035002036D02037B024B
:1001FB0003980203C40203F5900035E0602AC3E5BF
:10020B00229464E5219400500575F403800375F482
:10021B0000AE21E5227802CEC313CE13D8F9FFC36B
:10022B0074FF9FF5FC0203DF900038E06015C3E517
:10023B002294F4E52194015005C2B70203DFD2B733
:10024B000203DFD2B70203DF900035E070089000A5
:10025B0038E07002C2B7AE23AF240203A49000367D
:10026B00E06029C3E5249464E5239400500575F3FD
:10027B0003800375F300AE23E5247802CEC313CEBF
:10028B0013D8F9FFC374FF9FF5FB801B900039E077
:10029B006013C3E52494F4E52394015004C2B680A3
:1002AB0006D2B68002D2B60203DF900036E07008A9
:1002BB00900039E07002C2B6AE25AF260203A490BF
:1002CB00003AE06013C3E52694F4E525940150044D
:1002DB00C2B58006D2B58002D2B50203DF90003AD8
:1002EB00E07002C2B5AE27AF280203A490003BE03A
:1002FB006013C3E52894F4E52794015004C2B4803D
:10030B0006D2B48002D2B40203DF90003BE070024D
:10031B00C2B4AE29AF2A0203A490003CE06013C321
:10032B00E52A94F4E52994015004C2B38006D2B3B4
:10033B008002D2B30203DF90003CE07002C2B3AE86
:10034B002BAF2C805490003DE06013C3E52C94F44C
:10035B00E52B94015004C2B28006D2B28002D2B215
:10036B00807290003DE07002C2B2AE2DAF2E80299C
:10037B0090003EE06013C3E52E94F4E52D940150FC
:10038B0004C2B18006D2B18002D2B1804790003E48
:10039B00E07002C2B1AE2FAF307C007D1B1209633F
:1003AB007D14120975C374D59FF51674FC9EF51553
:1003BB0085168AE515F58C806090003FE06013C3CD
:1003CB00E53094F4E52F94015004C2B08006D2B00E
:1003DB008002D2B0C374589516F51874F69515F5BE
:1003EB001785188AE517F58C802F90003FE0700277
:1003FB00C2B0AE21AF227C007D1B1209637D1412AB
:10040B000975C374D59FF51674FC9EF51585168A70
:09041B00E515F58C80007519004F
:0B042400D0D0D082D083D0F0D0E032E6
:03003B0002137934
:10137900C0E0C0F0C0D075D000C000C001C004C03A
:1013890005C007C2D874B8251DF51D740B351CF5A9
:101399001C851DEAE51CF5FA120EA5D007D005D06B
:0C13A90004D001D000D0D0D0F0D0E03251
:10042F001215AA1216C07F901216191212A1120FCE
:10043F00C57D327C007F061200367DE87C037F018C
:10044F001200361210C11216C390001AE0FF1216D6
:10045F00582096FD1215901212EDE55314600C14EE
:10046F00601A240270191216C3800C1216C07D0A6E
:10047F007C007F0412142675530380031216C020CC
:10048F0096D5E55364027002F553900016E004F020
:10049F00E4A3F07DD07C077F021214267D187C0028
:1004AF007F05121426121670121664121640900051
:1004BF000BE539F0AE54AF55AB07AA06E4F9F87F58
:1004CF00807EDE7D0FFC120A558E318F32E5319022
:1004DF00000CF0A3EFF0AE1EAF1FAB07AA06E4F9B6
:1004EF00F8AE31AF32FCFD1209CAE47B03FAF9F81A
:1004FF001209CA780D120AE78E338F34E533900054
:10050F000EF0A3EFF012167B1216A3121634900002
:10051F0018E004F0E0D39404748094804002E4F077
:10052F00900018E0241AF582E43400F583E0FF12FE
:10053F001658900000E0F9FB7A0064A260030206EF
:10054F0049A3E0FF30E7089000247401F08005E430
:10055F00900024F0EF30E6089000407401F0800521
:10056F00E4900040F0EF30E30B9000357401F0128F
:10057F0016B08008E4900035F01216B4900001E038
:10058F0030E20B9000367401F01216B88008E49038
:10059F000036F01216BC900001E030E108900037F1
:1005AF007401F08005E4900037F0900002E0FF3016
:1005BF00E7089000387401F08005E4900038F0EF00
:1005CF0030E6089000397401F08005E4900039F0AE
:1005DF00EF30E50890003A7401F08005E490003A9E
:1005EF00F0EF30E40890003B7401F08005E49000D8
:1005FF003BF0EF30E30890003C7401F08005E4908D
:10060F00003CF0EF30E20890003D7401F08005E40B
:10061F0090003DF0EF30E10890003E7401F080054E
:10062F00E490003EF0EF30E00990003F7401F002DB
:10063F0007B3E490003FF00207B3EB64A04A6008F1
:10064F00E964A16003020466900001E0755700F5AC
:10065F0058AE57E5587802C333CE33CED8F9F55894
:10066F008E57900002E0FFC4131354032558F5581A
:10067F00E43557F557EF543F755900F55AC4F85400
:10068F000FC868F55AE559C454F048F559A3E0FF6F
:10069F00C4540F255AF55AE43559F559EF540F75CF
:1006AF005B00F55CAE5B7806C333CE33CED8F9F57D
:1006BF005C8E5B900004E0FF1313543F255CF55CE8
:1006CF00E4355BF55BEF5403755D00F55E755E0019
:1006DF00F55DA3E0255EF55EE4355DF55DA3E075A0
:1006EF005F00F560AE5FE5607802C333CE33CED8DE
:1006FF00F9F5608E5F900007E0FFC41313540325D4
:10070F0060F560E4355FF55FEF543F756100F562AA
:10071F00C4F8540FC868F562E561C454F048F56138
:10072F00A3E0FFC4540F2562F562E43561F561EF74
:10073F00540F756300F564AE637806C333CE33CEC2
:10074F00D8F9F5648E63900009E0FF1313543F2529
:10075F0064F564E43563F563EF5403756500F5667E
:10076F00756600F565A3E02566F566E43565F56504
:10077F00E964A0703BF567C3E567940874809480C3
:10078F005022E56725E02457F8E6FE08E6FFE56707
:10079F0025E02425F582E43400F583EEF0A3EFF095
:1007AF00056780D37DE87C037F031214260204665D
:1007BF00E4F567C3E5679408748094805020C2AF56
:1007CF00E56725E02457F8E6FE08E6FFE56725E034
:1007DF002421F8A60608A607D2AF056780D5120B0D
:0407EF00EA020466B0
:01000A0054A1
:0816A3007F0C7EA8DEFEDFFCD7
:0116AB00221C
:0E161900AD07AF051DEF60051216A380F52288
:10155400AB0775C501EC6008EB04F5C38DC48004CA
:0E1564008BC38DC475C65A75C6A500AFC222D2
:10157200AA0775C5028BC2EC6008EA04F5C38DC4E4
:0E15820080048AC38DC475C65A75C6A50022A2
:1015FA0075C5038FC3E4F5C475C65A75C6A500221E
:1014C5007E0275C7837F021215FA7B88E4FDFC1244
:1014D5001572121554EF648870147F021215FA7B89
:1014E50055121572121554EF64557002FF227F01D3
:0114F50022D4
:1012500012127F1208E9FF12127F90000112090298
:10126000FF12127F900002120902FF12127F9000FB
:0F12700003120902FF12127F900004120902FFFD
:10127F00E4FEEEC39408748094805015EF3392957A
:10128F00D2CCEF25E0FFA297E4334207C2CC0E8009
:01129F00E16D
:0112A000222B
:1015E900C294EF2420FF12127FAF0512127FD2940A
:0115F90022CF
:06000E008B6C8A6D896E07
:10001400C2947FA012127FE4FCECC39D5011AB6C20
:10002400AA6DA96E8C8275830012127B0C80EAD2B1
:010034009437
:0100350022A8
:061526008B6A8A6B896CE0
:10152C00C2947F6112127FE4FCECC39D5017E4FF60
:10153C0012127FAB6AAA6BA96C8C82758300EF12B6
:07154C0009410C80E4D29478
:011553002275
:0A168600C2947F30121250D2942259
:0A169000C2947F2A121250D2942255
:0C163400C2CD7D3BE4FF1215E9D2CD22AF
:0C164000C2CD7D0AE4FF1215E9D2CD22D4
:10149300C2CDEFFB7A00640370047D27801CEB64EC
:1014A300024A70047D258012EFFB7A006401700408
:1014B3007D238006EB4A70077D217F061215E9D252
:0214C300CD2238
:0C164C00AD07C2CD7F111215E9D2CD22EE
:0C165800AD07C2CD7F051215E9D2CD22EE
:081334008B698A6A896BAC0722
:10133C007B03C2CDC2CCE4FD7F011215E90D7F0207
:10134C001215E91D7F041215E9121634AF0412169A
:10135C00587F031214937F0B12164CAB69AA6AA91F
:0D136C006B121690AB69AA6AA96B02168677
:0C166400C2CD7D407F071215E9D2CD22D7
:100E0800E4F569F56A786B7C00FD7BFF7A00790A66
:100E1800FE7F011208C3C2CDC2CCC2947F20121239
:100E28007FEF640E60037569017F0A12127FD29406
:100E3800C294E4FF12127FE4FF12127FEF640A608B
:100E480003436A02D294E4FD7F011215E97F04127C
:100E580015E90D7F111215E97B007A00796B1200F4
:100E68000ED2CD7F02121619C294E4FF12127FEF40
:100E7800642E6003436A04D294309603436A18D2FE
:100E8800CDE569600ED3E56A9401748094804003CF
:0C0E9800436A017D207F071215E9AF6A54
:010EA400222B
:0316C000D29022A3
:0316C300C29022B0
:1015C100AC07EC6011D2907F32121619C2907F32B3
:0715D1001216191C80EC2228
:100F450002042FE493A3F8E493A34003F68001F28F
:100F550008DFF48029E493A3F85407240CC8C333AD
:100F6500C4540F4420C8834004F456800146F6DF7C
:100F7500E4800B0102040810204080900D6BE47E94
:100F8500019360BCA3FF543F30E509541FFEE49371
:100F9500A360010ECF54C025E060A840B8E493A338
:100FA500FAE493A3F8E493A3C8C582C8CAC583CA63
:100FB500F0A3C8C582C8CAC583CADFE9DEE780BE1B
:010E070000EA
:1007F300E709F608DFFA8046E709F208DFFA803EE8
:1008030088828C83E709F0A3DFFA8032E309F608D4
:10081300DFFA8078E309F208DFFA807088828C833C
:10082300E309F0A3DFFA806489828A83E0A3F608F0
:10083300DFFA805889828A83E0A3F208DFFA804CCA
:1008430080D280FA80C680D4806980F280338010A1
:1008530080A680EA809A80A880DA80E280CA80330A
:1008630089828A83ECFAE493A3C8C582C8CCC58382
:10087300CCF0A3C8C582C8CCC583CCDFE9DEE78052
:100883000D89828A83E493A3F608DFF9ECFAA9F0D1
:10089300EDFB2289828A83ECFAE0A3C8C582C8CC27
:1008A300C583CCF0A3C8C582C8CCC583CCDFEADE40
:1008B300E880DB89828A83E493A3F208DFF980CCA2
:1008C30088F0EF60010E4E60C388F0ED2402B4049B
:1008D3000050B9F582EB2402B4040050AF23234542
:0608E3008223900843731C
:1008E900BB010689828A83E0225002E722BBFE020D
:0908F900E32289828A83E4932240
:10090200BB010CE58229F582E5833AF583E02250AA
:1009120006E92582F8E622BBFE06E92582F8E222F4
:0D092200E58229F582E5833AF583E493220E
:10092F00BB010689828A83F0225002F722BBFE01A7
:02093F00F322A1
:10094100F8BB010DE58229F582E5833AF583E8F0EC
:10095100225006E92582C8F622BBFE05E92582C898
:02096100F22280
:10096300EF8DF0A4A8F0CF8CF0A428CE8DF0A42EA8
:02097300FE2262
:10097500BC000BBE0029EF8DF084FFADF022E4CC66
:10098500F875F008EF2FFFEE33FEEC33FCEE9DEC2F
:10099500984005FCEE9DFE0FD5F0E9E4CEFD22ED75
:1009A500F8F5F0EE8420D21CFEADF075F008EF2FBF
:1009B500FFED33FD4007985006D5F0F222C398FDB0
:0509C5000FD5F0EA224D
:1009CA00E88FF0A4CC8BF0A42CFCE98EF0A42CFCCC
:1009DA008AF0EDA42CFCEA8EF0A4CDA8F08BF0A44A
:1009EA002DCC3825F0FDE98FF0A42CCD35F0FCEBA9
:1009FA008EF0A4FEA9F0EB8FF0A4CFC5F02ECD396E
:0F0A0A00FEE43CFCEAA42DCE35F0FDE43CFC22DA
:100A190075F008758200EF2FFFEE33FECD33CDCC94
:100A290033CCC58233C5829BED9AEC99E582984017
:100A39000CF582EE9BFEED9AFDEC99FC0FD5F0D6F4
:100A4900E4CEFBE4CDFAE4CCF9A88222B800C1B91E
:100A59000059BA002DEC8BF084CFCECDFCE5F0CB5C
:100A6900F97818EF2FFFEE33FEED33FDEC33FCEB95
:100A790033FB10D703994004EB99FB0FD8E5E4F950
:100A8900FA227818EF2FFFEE33FEED33FDEC33FC3D
:100A9900C933C910D7059BE99A4007EC9BFCE99A31
:100AA900F90FD8E0E4C9FAE4CCFB2275F010EF2F76
:100AB900FFEE33FEED33FDCC33CCC833C810D70776
:100AC9009BEC9AE899400AED9BFDEC9AFCE899F8B1
:0E0AD9000FD5F0DAE4CDFBE4CCFAE4C8F92244
:100AE700E86010ECA2E713FCED13FDEE13FEEF1325
:040AF700FFD8F02212
:060AFB008A838982E47386
:00000001FF
